:03000000020E15D8
:0C0E1500787FE4F6D8FD758155020E5C74
:100F69000808F7FBFDFEEFDFBF7F0B10C0F9A4B047
:100F7900999282F88090FF021B00000B1D303132DC
:100F890033343536373839000D2F54656D70657235
:070F990061747572653A00F6
:07104700120FA17F647E007F
:10104E00D3EF9400EE94004007EF1F70F31E80F074
:01105E00226F
:100FF700E4FDD2B77F08FE12104EC2B77F507E00C5
:1010070012104ED2B77F0E7E0012104EA2B7E433F5
:08101700FD7F147E0002104E63
:10101F00E4FC7D08EDD39400748094804017C2B730
:10102F00EC13FCD2B730B7034304807F047E001269
:07103F00104E1D80DFAF041D
:011046002287
:020FA100AD079A
:100FA3007B08EBD3940074809480401DC2B7ED138B
:100FB30092B730B7047F0180027F057E0012104E86
:090FC300D2B7EDC313FD1B80D968
:010FCC002202
:100F2D00E4FBFFFDFC120FF77FCC120FA17F4412E3
:100F3D001047120FF77FCC120FA17FBE1210471270
:100F4D00101FAB0712101FEFFE7C00E42BFFEC3ED1
:0B0F5D00C4F854F0C8EFC4540F48FF64
:010F68002266
:0A0FCD00F8E6FF1210867F057E0093
:100FD700E4FDFCC3ED9FEC9E5015E4FAFB0BBB0050
:0F0FE700010AEB64784A70F50DBD00010C80E43F
:010FF60022D8
:10108600D2B0C2B1C2B28F90120FD3D2B2C2B222C4
:10109600C2B0C2B1C2B28F90120FD3D2B2C2B222C4
:10105F007F381210967F0C1210967F061210967F13
:04106F0001021096D4
:100CBD00E4F550F551F552F553F554F555F582F52A
:100CCD0083AE1BAF1CFC7D64120B128E508F51AE88
:100CDD001BAF1C7C007D64120B127E007F0ACFCDF2
:100CED00CFCECCCE120B128E528F53AE1BAF1C7CBF
:100CFD00007D0A120B128C548D557F8012109612A6
:100D0D000FD3AF82742F2FF8E6FF6006120FD0A31A
:100D1D0080F0754F067FC5121096120FD3741D25E6
:100D2D0051120FCD741D2553120FCD741D25551263
:100D3D000FCD7FDF120FD07F43120FD0741D2553BF
:100D4D00F8E6FF741D2551F8E62FFFE433FE741D00
:0B0D5D002555F8E67C002FFFEC3EFE61
:010D68002268
:101073007E03AD061EED600A7F28AD071FED60F20B
:0210830080F8F3
:011085002248
:100EA100AE29AF2A7C037DE8120ABD8F2EAE29AF91
:100EB1002A7C037DE8120ABDAA04AB057D647C008F
:100EC100AF03AE02120ABD8F2D7D647C00AF03AE6D
:100ED10002120ABDAA04AB057D0A7C00AF03AE0273
:100EE100120ABD8F2C7D0A7C00AF03AE02120ABD2F
:100EF1008D2BE4FCECFF3395E0FEC3EF9404EE642C
:100F0100809480502674082CF8E6F4F590742B2C0C
:100F1100F8E62410F8E6F4F580EF64014E700674EB
:0B0F2100802580F5801210730C80C941
:010F2C0022A2
:020D6900A907D8
:100D6B00E4F54EE970027902E9640170027903D26D
:100D7B00A50000C2A00000D2A40000C2A40000D2B3
:100D8B00A4E91392A50000C2A40000D2A4E9C313E6
:100D9B001392A50000C2A4D2A50000E4FEFFFDED56
:100DAB00C39408748094805022A2A5E4334207D2E6
:100DBB00A40000C2A40000EF25E0FFEE33FEED64BB
:100DCB00077005A2A53342070D80D4E4FDEDC39453
:100DDB0008748094805027E4A2A533D2A40000C2EB
:100DEB00A40000C43333335480424EEDC3940774D4
:100DFB008094805006E54EC313F54E0D80CFD2A0E4
:090E0B00C2A4D2A5EFFEE54EFFE2
:010E140022BB
:100B56007540037541E87542007543287544007574
:100B6600452D75460075473212105F120F2D751B05
:100B7600008F1CE4FF120D698F287E00C3740E9F40
:100B86007480F8987C0050047D0180027D00C3EDDE
:090B960094F3EC64809480504358
:100B9F008E4C8F4DAC4CAD4DEC120A037BD37A9B30
:100BAF0079DE783E1208F87BCD7ACC791478411231
:100BBF0008078F3F8E3E8D3D8C3CE4FFFE7D207CF1
:100BCF0041AB3FAA3EA93DA83C1208F8120A3C8E41
:030BDF00298F2A31
:100BE200E4F590209403020CB1F542754328F544D4
:100BF20075452DF546754732D3E52A9541E5299588
:100C0200405003020CB3309114E51C9543E5426455
:100C120080F8E51B6480985004D297801630911AB0
:100C2200D3E51C9543E5426480F8E51B6480984057
:100C320009C2977F327E00120FD7309217C3E51C8C
:100C42009545E5446480F8E51B6480985006D29788
:100C52007F32801830921AD3E51C9545E5446480B2
:100C6200F8E51B6480984009C2977F3C7E00120F12
:100C7200D730931CC3E51C9547E5466480F8E51B15
:100C8200648098500BD2977F327E00120FD7801665
:100C9200309313D3E51C9547E5466480F8E51B6461
:100CA20080984002C2977F327E00120FD78002C224
:0B0CB200977F0A7E00120FD7020B7123
:10080000020AA8E86480F8E933E83360110460F074
:10081000ED33EC337009E8FCE9FDEAFEEBFF22045E
:1008200060DED3EB9FEA9EE99DE8C2E78CF0C2F759
:1008300095F0400CE8CCF8E9CDF9EACEFAEBCFFB25
:10084000120A7385D0F05804700320D5B3E8047001
:10085000075002B2D5020AB292D5EC0460F7E4CC9C
:10086000C0E0C398F8603B94186008400DD0E0FBEE
:10087000020A8AE4FBFAC9FC8028E830E406E4C9ED
:10088000FBE4CAFCE830E305E4C9CACBFCE8540742
:100890006010F8C3E913F9EA13FAEB13FBEC13FC4D
:1008A000D8F130F52FC3E49CFCEF9BFFEE9AFEEDF0
:1008B00099FDD0E0FBEF4E4D4C701222DB03020A93
:1008C000AFEC2CFCEF33FFEE33FEED33FDED30E704
:1008D000EB020A8AEF2BFFEE3AFEED39FDD0E0FB8A
:1008E00050130BBB0003020AB2ED13FDEE13FEEF33
:0808F00013FFEC13FC020A8A5D
:1008F800EC4D6011E8497017ED33EC3304600DE4FA
:10090800FCFFFEFD22E933E8330470F8020AA8125E
:100918000A7358046009E4CC24815006285009025F
:100928000AB2284003020AAFC0E0EB4A7044B9801B
:1009380006D0E0FB020A9EEF4E701CBD8008EBFF5C
:10094800EAFEE9FD80EBE98DF0A4FEE5F00209E19D
:10095800E9CDF9EAFEEBFFEF89F0A4FCE5F0CE89DA
:10096800F0A42EFFE435F0CD89F0A42DFEE435F097
:100978008067EF4E7005BD80D780C3EF8BF0A4ACC5
:10098800F0EE8BF0A42CFCE435F0F8EF8AF0A42C00
:10099800E5F038FCE433CB8DF0A42CFCE5F03BF813
:1009A800EE8AF0A42CFCE5F038F8E433CF89F0A403
:1009B8002CFCE5F038CF3400CE89F0A42FFFE5F009
:1009C8003EFEE433C98DF0A42EFEE5F039CD8AF061
:1009D800A42FFFE5F03EFEE43DFD33D0E0FB5007D9
:1009E8000BBB000F020AB2EC2CFCEF33FFEE33FE18
:0609F800ED33FD020A8A46
:1009FE0075F020800E75F010800575F0087D007E74
:100A0E00007F003392D530D503120B48EC334010E3
:100A1E00EF33FFEE33FEED33FDEC33FCD5F0ED227C
:0E0A2E00E5F0247EA2D513CC92E7CDCEFF22B8
:100A3C00EDD2E7CD33EC3392D524814006E4FFFEB2
:100A4C00FDFC22FCE4CFCECDCC24E0501174FF8011
:100A5C00EDC3CC13CCCD13CDCE13CECF13CF0470AE
:070A6C00F030D5DE020B485B
:100A7300E9D2E7C933E833F892D5EDD2E7CD33ECC9
:070A830033FC5002B2D52242
:100A8A00EC30E7100FBF000C0EBE00080DBD0004CD
:100A9A000BEB6014A2D5EB13FCED92E7FD2274FF79
:100AAA00FCFDFEFF22E480F8A2D574FF13FC7D80D2
:030ABA00E480EFE6
:100E2100020B56E493A3F8E493A34003F68001F286
:100E310008DFF48029E493A3F85407240CC8C333D2
:100E4100C4540F4420C8834004F456800146F6DFA1
:100E5100E4800B0102040810204080900F69E47EB9
:100E6100019360BCA3FF543F30E509541FFEE49396
:100E7100A360010ECF54C025E060A840B8E493A35D
:100E8100FAE493A3F8E493A3C8C582C8CAC583CA88
:100E9100F0A3C8C582C8CAC583CADFE9DEE780BE40
:010FA0000050
:100ABD00BC000BBE0029EF8DF084FFADF022E4CC1D
:100ACD00F875F008EF2FFFEE33FEEC33FCEE9DECE6
:100ADD00984005FCEE9DFE0FD5F0E9E4CEFD22ED2C
:100AED00F8F5F0EE8420D21CFEADF075F008EF2F76
:100AFD00FFED33FD4007985006D5F0F222C398FD67
:050B0D000FD5F0EA2203
:100B1200C2D5EC30E709B2D5E4C39DFDE49CFCEEFE
:100B220030E715B2D5E4C39FFFE49EFE120ABDC3AF
:100B3200E49DFDE49CFC8003120ABD30D507C3E4AA
:060B42009FFFE49EFE226D
:0E0B4800C3E49FFFE49EFEE49DFDE49CFC22BE
:00000001FF
